:100000000C9468000C9490000C9490000C94500692
:100010000C942B060C9406060C9490000C94900003
:100020000C9490000C9490000C9490000C94900010
:100030000C9490000C9490000C9490000C94900000
:100040000C948F050C9490000C947F030C9459032E
:100050000C9490000C9490000C9490000C949000E0
:100060000C9482060C9490000000000024002700ED
:100070002A0000000000250028002B0000000000DE
:1000800023002600290004040404040404040202DA
:100090000202020203030303030302020301020438
:1000A00008102040800102040810200102040810FA
:1000B0002040804000000008000201000003040707
:1000C000000000000000000000000000D30DD60971
:1000D00011241FBECFEFD8E0DEBFCDBF11E0A0E0FE
:1000E000B1E0EAE4F2E202C005900D92AE39B10748
:1000F000D9F723E0AEE9B1E001C01D92AB3FB207F2
:10010000E1F710E0C7E6D0E004C02197FE010E94AD
:10011000D40EC636D107C9F70E94E6090C9418110F
:100120000C940000CF92DF92EF92FF920F931F93F7
:10013000CF93DF936C017A018B01C0E0D0E0CE1544
:10014000DF0589F0D8016D918D01D601ED91FC910B
:100150000190F081E02DC6010995892B11F47E01F3
:1001600002C02196ECCFC701DF91CF911F910F9173
:10017000FF90EF90DF90CF900895FC01918D828DDC
:10018000981761F0828DDF01A80FB11D5D968C91EB
:10019000928D9F5F9F73928F90E008958FEF9FEFF6
:1001A0000895FC01918D828D981731F0828DE80FB2
:1001B000F11D858D90E008958FEF9FEF0895FC016C
:1001C000918D228D892F90E0805C9F4F821B910939
:1001D0008F739927089581E992E00E94DF0021E062
:1001E000892B09F420E0822F0895FC01848DDF0122
:1001F000A80FB11DA35ABF4F2C91848D90E001969A
:100200008F739927848FA689B7892C93A089B18988
:100210008C9180648C93938D848D981306C0028892
:10022000F389E02D80818F7D80830895EF92FF9286
:100230000F931F93CF93DF93EC0181E0888F9B8D09
:100240008C8D981305C0E889F989808185FD24C0CB
:10025000F62E0B8D10E00F5F1F4F0F731127E02E4E
:100260008C8DE8120CC00FB607FCFACFE889F9892B
:10027000808185FFF5CFCE010E94F500F1CF8B8DF7
:10028000FE01E80FF11DE35AFF4FF0820B8FEA8960
:10029000FB898081806207C0EE89FF896083E889DD
:1002A000F98980818064808381E090E0DF91CF9143
:1002B0001F910F91FF90EF900895CF93DF93EC0182
:1002C000888D8823C9F0EA89FB89808185FD05C076
:1002D000A889B9898C9186FD0FC00FB607FCF5CFB0
:1002E000808185FFF2CFA889B9898C9185FFEDCFF8
:1002F000CE010E94F500E7CFDF91CF91089580E015
:1003000090E0892B29F00E94EB0081110C940000F1
:100310000895833081F028F4813099F08230A1F083
:1003200008958730A9F08830B9F08430D1F48091F5
:1003300080008F7D03C0809180008F778093800044
:10034000089584B58F7702C084B58F7D84BD0895EC
:100350008091B0008F7703C08091B0008F7D809333
:10036000B00008953FB7F89480911D0290911E024D
:10037000A0911F02B091200226B5A89B05C02F3F77
:1003800019F00196A11DB11D3FBFBA2FA92F982FBB
:100390008827820F911DA11DB11DBC01CD0142E036
:1003A000660F771F881F991F4A95D1F7089580918E
:1003B000240290E020912502821B9109089590E08B
:1003C000FC01EE0FFF1FE058FF4FA591B4912C9157
:1003D000FC01EB5EFD4F30812083880F991FFC01EB
:1003E000EA5FFE4F0190F081E02D8081089585ED58
:1003F0008093BC008091BC0084FDFCCF10926C0205
:1004000008954091C001262F30E0240F311D213284
:100410003105DCF420916C022430C9F4FC0180E049
:1004200090E0861758F43091C0012191DC01A2566A
:10043000BE4FA30FB11D2C930196F3CF8091C00145
:10044000680F6093C00180E0089581E0089582E024
:1004500008950895E091250280912402E81730F470
:10046000F0E0EA5DFD4F808190E008958FEF9FEF0F
:1004700008959091250280912402981750F4E92F55
:10048000F0E0EA5DFD4F208130E09F5F9093250210
:1004900002C02FEF3FEFC9010895CF92DF92EF9294
:1004A000FF920F931F93CF93DF937C01262F972FFB
:1004B0008A0180916D02882391F0C62FD72F6E019B
:1004C000C40ED51ECC15DD0571F06991D701ED91F3
:1004D000FC910190F081E02DC7010995F3CF642FC5
:1004E000822F0E940102C801DF91CF911F910F91CD
:1004F000FF90EF90DF90CF900895CF93DF931F92FE
:10050000CDB7DEB7698320916D022223D1F020910F
:100510009002203240F021E030E0FC01338322835E
:1005200080E090E015C080916E02E82FF0E0E15984
:10053000FD4F998190838F5F80936E02809390022C
:1005400005C061E0CE0101960E94010281E090E0C9
:100550000F90DF91CF910895DC01ED91FC91028421
:10056000F385E02D41E0099581E090E0089508953C
:100570000895EF92FF920F931F93CF93DF93EC01B7
:100580007B018A0188819981009729F02A813B812A
:1005900024173507F8F4B8016F5F7F4F0E940710EA
:1005A000009759F0998388831B830A832C813D81AE
:1005B000232B81F4FC0110820DC088819981009762
:1005C00011F00E946F0F198218821D821C821B82FB
:1005D0001A8207C01D830C83B701888199810E940C
:1005E000DA10CE01DF91CF911F910F91FF90EF9024
:1005F00008956115710579F0FB0101900020E9F77C
:100600003197AF01461B570BDC01ED91FC91028045
:10061000F381E02D099480E090E008954F925F927D
:100620006F927F92EF92FF920F931F93CF93DF937E
:10063000CDB7DEB7A1970FB6F894DEBF0FBECDBF22
:100640007C01FA01CB0119A2223008F42AE08E01C4
:100650000F5D1F4F422E512C612C712CBF01A30145
:1006600092010E94B20EF901CA01015011096A30CB
:1006700014F4605D01C0695CD8016C93232B242BBA
:10068000252B61F7B801C7010E94F902A1960FB6A8
:10069000F894DEBF0FBECDBFDF91CF911F910F91B8
:1006A000FF90EF907F906F905F904F9008950C9423
:1006B000F9021F920F920FB60F9211242F933F93BE
:1006C0004F935F936F937F938F939F93AF93BF935A
:1006D000EF93FF9381E992E00E94F500FF91EF9183
:1006E000BF91AF919F918F917F916F915F914F914A
:1006F0003F912F910F900FBE0F901F9018951F9252
:100700000F920FB60F9211242F938F939F93EF9315
:10071000FF93E091A102F091A2028081E091A702F3
:10072000F091A80282FD12C090818091AA028F5F91
:100730008F732091AB02821751F0E091AA02F0E092
:10074000EF56FD4F958F8093AA0201C08081FF91E3
:10075000EF919F918F912F910F900FBE0F901F904F
:100760001895CF93DF93282F30E0F901EC54FF4F19
:100770008491F901E356FF4FD491F901EA57FF4FF5
:10078000C491CC2391F081110E948901EC2FF0E0FB
:10079000EE0FFF1FE458FF4FA591B491EC91ED23AC
:1007A00081E090E021F480E002C080E090E0DF9101
:1007B000CF9108951F93CF93DF93282F30E0F90155
:1007C000EC54FF4F8491F901E356FF4FD491F901A6
:1007D000EA57FF4FC491CC23C9F0162F81110E9414
:1007E0008901EC2FF0E0EE0FFF1FEE58FF4FA591AF
:1007F000B4918FB7F894111105C09C91ED2FE0953D
:10080000E92302C0EC91ED2BEC938FBFDF91CF91E8
:100810001F910895AF92BF92CF92DF92EF92FF9215
:100820000F931F93CF93DF938C015C018EE0A80E92
:10083000B11CE42EF12CC0E0D0E0C62ED12CCE1598
:10084000DF0579F0B6010C2E02C0759567950A9404
:10085000E2F76170F50181915F010E94DA03219650
:10086000EECF61E0F80185850E94DA0360E0F801CF
:100870008585DF91CF911F910F91FF90EF90DF90D1
:10088000CF90BF90AF900C94DA030F931F93CF9348
:10089000DF93EC01162F042F61E0413009F060E096
:1008A0008B850E94DA038C858F3F19F060E00E94EF
:1008B000DA03023081F08C8184FF02C048E00CC072
:1008C000612F70E084E0759567958A95E1F744E0C3
:1008D000CE010E940A0444E0612FCE01DF91CF9146
:1008E0001F910F910C940A04CF93DF9390E0FC01C9
:1008F000E356FF4F2491FC01EA57FF4F8491882370
:1009000061F190E0880F991FFC01E859FF4FC591F4
:10091000D491FC01EE58FF4FA591B491611109C02B
:100920009FB7F8948881209582238883EC912E23A9
:100930000BC0623061F49FB7F8943881822F8095A4
:1009400083238883EC912E2B2C939FBF06C08FB7F7
:10095000F894E8812E2B28838FBFDF91CF910895E3
:100960001F93CF93DF93182FEB0161E00E94740473
:10097000209711F460E004C0CF3FD10539F461E065
:10098000812FDF91CF911F910C94DA03E12FF0E0DA
:10099000EC54FF4FE491E330F9F048F4E130B9F062
:1009A000E230A1F584B5806284BDC8BD34C0E730B3
:1009B000E9F0E83019F1E43049F580918000806277
:1009C00080938000D0938B00C0938A0024C084B5AC
:1009D000806884BDC7BD1FC08091800080688093FF
:1009E0008000D0938900C093880015C08091B0002A
:1009F00080688093B000C093B3000DC08091B000B8
:100A000080628093B000C093B40005C0C038D105A7
:100A10000CF0B5CFAFCFDF91CF911F910895DC01DE
:100A200056968C9156978F3F19F1E82FF0E0EC54D1
:100A3000FF4FE49119962D913C911A97EE2359F0AE
:100A400070E0232B31F02FEF30E0A901461B570B4C
:100A5000BA010C94B004662319F0232B31F403C0BF
:100A60002130310511F461E001C060E00C94DA033B
:100A70000895EF92FF921F93CF93DF93EC01162F0F
:100A80007A0161E0812F0E9474041E8BFA86E98648
:100A9000E881F9810084F185E02D60E0CE01DF91ED
:100AA000CF911F91FF90EF9009948F929F92AF92F8
:100AB000BF92CF92DF92EF92FF926B017C010E9476
:100AC000B2014B015C01C114D104E104F104F1F065
:100AD0000E94B201DC01CB0188199909AA09BB095E
:100AE000883E9340A105B10570F321E0C21AD108F8
:100AF000E108F10888EE880E83E0981EA11CB11C65
:100B0000C114D104E104F10419F7DDCFFF90EF9097
:100B1000DF90CF90BF90AF909F908F9008951F92DD
:100B20000F920FB60F9211242F933F938F939F93A1
:100B3000AF93BF938091190290911A02A0911B026A
:100B4000B0911C023091180223E0230F2D3720F4BE
:100B50000196A11DB11D05C026E8230F0296A11D17
:100B6000B11D209318028093190290931A02A0934A
:100B70001B02B0931C0280911D0290911E02A09155
:100B80001F02B09120020196A11DB11D80931D028C
:100B900090931E02A0931F02B0932002BF91AF91C9
:100BA0009F918F913F912F910F900FBE0F901F90AB
:100BB0001895FC01918162818081238131E030931D
:100BC0006D0220938F0210926E0210929002609537
:100BD0006923682B8EE293E00E947D020C949308B7
:100BE000FC011082118212821382148215821682F5
:100BF000DC0117960F961D92A817B907E1F77F96AB
:100C00001D921D92AE17BF07D9F708951F920F923C
:100C10000FB60F9211242F933F934F935F936F93CF
:100C20007F938F939F93AF93BF93EF93FF9382E054
:100C30000E94DF01FF91EF91BF91AF919F918F9142
:100C40007F916F915F914F913F912F910F900FBEC8
:100C50000F901F9018951F920F920FB60F921124AC
:100C60002F933F934F935F936F937F938F939F93B4
:100C7000AF93BF93EF93FF9381E00E94DF01FF9159
:100C8000EF91BF91AF919F918F917F916F915F9104
:100C90004F913F912F910F900FBE0F901F9018957D
:100CA0001F920F920FB60F9211242F933F934F93E1
:100CB0005F936F937F938F939F93AF93BF93EF93C4
:100CC000FF9380E00E94DF01FF91EF91BF91AF9110
:100CD0009F918F917F916F915F914F913F912F9154
:100CE0000F900FBE0F901F901895FC0190819053AC
:100CF0009A3008F090E0818180532AE0929F800D25
:100D0000112408951F920F920FB60F9211242F9362
:100D10003F934F935F936F937F938F939F93AF9383
:100D2000BF93EF93FF938091B900887F803609F4D9
:100D30009CC068F5883209F45BC090F4803109F4F6
:100D400054C038F4882309F4F6C0883009F44DC043
:100D5000F6C0883109F44CC0803209F45DC0EFC0A0
:100D6000803409F468C048F4803309F455C08833EE
:100D700009F0E5C080936A02D8C0803509F44FC0FD
:100D8000883509F45DC0883409F0D9C0D6C08839E7
:100D900009F4C7C0A8F4883709F467C038F4883666
:100DA00009F463C0803709F460C0C9C0883809F409
:100DB000B8C0803909F45FC0803809F0C0C05BC09A
:100DC000803B09F486C038F4803A09F466C0883A5A
:100DD00009F47FC0B4C0803C09F4A7C0883C09F482
:100DE000A4C0883B09F48AC0AAC08091470210C001
:100DF0009091690280916802981770F5E0916902FC
:100E000081E08E0F80936902F0E0E85BFD4F808106
:100E10008093BB0085EC86C080936A028EC0E0910F
:100E2000690281E08E0F809369028091BB00F0E03F
:100E3000E85BFD4F808390916902809168026EC0EB
:100E4000E091690281E08E0F809369028091BB007E
:100E5000F0E0E85BFD4F808380916B0281116DC0F3
:100E600081E08093460284EA61C083E080936C0253
:100E70001092E401CFCF8091E401803208F051C09C
:100E8000E091E40181E08E0F8093E4018091BB004A
:100E9000F0E0EC53FE4F8083BDCF85EC8093BC0027
:100EA00010926C028091E401803230F4E091E40110
:100EB000F0E0EC53FE4F10826091E40170E0E091AD
:100EC000C201F091C30184EC91E009951092E40114
:100ED00036C084E080936C021092C1011092C00170
:100EE000E091BE01F091BF0109958091C00181118F
:100EF00005C081E08093C00110929E01E091C10184
:100F000081E08E0F8093C101F0E0E256FE4F8081B8
:100F10008093BB009091C1018091C001981708F4A3
:100F200079CF85E88093BC000AC085EC8093BC0033
:100F300010926C0204C010926A020E94F701FF91A5
:100F4000EF91BF91AF919F918F917F916F915F9141
:100F50004F913F912F910F900FBE0F901F901895BA
:100F600010926C0281E080936B021092460261E065
:100F700082E10E94DA0361E083E10E94DA03E9EB97
:100F8000F0E080818E7F808380818D7F808388E404
:100F90008093B80085E48093BC000895CF93DF93DD
:100FA000EC016B83109225021092240210926E02C3
:100FB000109290020E94B00789818C8361E08B813E
:100FC0000E9401091092250280932402811101C020
:100FD000FFCF8EE293E00E9439028983DF91CF91A7
:100FE0000895DC01ED91FC910284F385E02D40E051
:100FF000099461E00E94F1078BE39FE10197F1F70B
:1010000008950F931F93CF93DF93EC01423018F0B4
:101010008C8188608C834F836887222329F041303C
:1010200019F48C8184608C8364E670E080E090E049
:101030000E9455056C8164FD31C0E881F98102840C
:10104000F385E02D42E063E0CE0109950BE416E460
:10105000C8010197F1F7E881F9810284F385E02D59
:1010600042E063E0CE010995C8010197F1F7E881FC
:10107000F9810284F385E02D42E063E0CE01099519
:1010800083E592E00197F1F7E881F9810284F38525
:10109000E02D42E062E0CE01099516C06062CE010B
:1010A0000E94F1078BE496E40197F1F76C8160628E
:1010B000CE010E94F10783E592E00197F1F76C8180
:1010C0006062CE010E94F1076C816062CE010E94D5
:1010D000F10784E08D836CE0CE010E94F107CE0120
:1010E0000E94F90782E08E8366E0CE010E94F1073C
:1010F000E881F9810084F185E02D6FEFCE01DF9169
:10110000CF911F910F910994CF93DF93EC010A9730
:1011100028F460E382EA93E00E94AC02CE01DF9102
:10112000CF910C9461092091900290918F0221320D
:1011300008F04AC080916C028111FCCF32E03093FC
:101140006C0231E030936B023FEF30936A021092F1
:10115000690220936802AFE6B2E048E452E0FA0187
:101160003E2F341B321718F43D913193F9CF109272
:10117000470220914702990F922B9093470290913A
:101180004602913061F4109246029091470290938A
:10119000BB009091BC0093FDF8CF95EC01C095EE9B
:1011A0009093BC0090916C029230E1F390916A02AE
:1011B0009F3F79F080916A02803241F080916A020B
:1011C000803331F084E005C081E003C082E001C0DB
:1011D00083E010926E021092900210926D020895B8
:1011E000FC01428121E030E001C0220F6A95EAF75C
:1011F000342F322B328330812095232320830C948B
:10120000D90590916C029111FCCF91E090936C0202
:1012100090936B022FEF20936A0210926902260FBF
:10122000209368029093470290914702880F892B80
:101230008093470280914602813061F41092460209
:10124000809147028093BB008091BC0083FDF8CF62
:1012500085EC01C085EE8093BC0080916C028130EA
:10126000E1F380916902861710F460916902A8E4A5
:10127000B2E026E232E0F9018E2F821B861718F4C5
:101280008D918193F9CF862F0895682F8EE293E098
:101290000C947D02813208F080E2682F88E60E947B
:1012A000010910922502809324020895E091A2037F
:1012B000F091A3030190F081E02D682F82EA93E082
:1012C00009940F931F93CF93DF9300D000D0CDB735
:1012D000DEB7AC01990F660B770B77FF23C08DE269
:1012E00049835A836B837C830E9456098C01498110
:1012F0005A816B817C8170956095509541955F4FC7
:101300006F4F7F4F2AE082EA93E00E940E03800F26
:10131000911F0F900F900F900F90DF91CF911F9121
:101320000F9108952AE082EA93E00F900F900F90BA
:101330000F90DF91CF911F910F910C940E03CF93DB
:10134000DF93CDB7DEB728970FB6F894DEBF0FBE98
:10135000CDBF1D8290E49E8324E12F8324E528875E
:1013600019829A8390E19B8390E59C832091A90345
:10137000821710F08FEF820F3091AA0390E0FE01E8
:10138000E80FF91F303121F4243011F4618101C0DC
:101390006581606882EA93E028960FB6F894DEBF14
:1013A0000FBECDBFDF91CF910C94F107CF93DF93A8
:1013B000C2EAD3E06A97888199810E946F0F83E027
:1013C000CA33D807B9F7DF91CF910895789484B5DF
:1013D000826084BD84B5816084BD85B5826085BD31
:1013E00085B5816085BD80916E00816080936E00BF
:1013F00010928100809181008260809381008091B1
:101400008100816080938100809180008160809361
:1014100080008091B10084608093B1008091B00021
:1014200081608093B00080917A00846080937A001C
:1014300080917A00826080937A0080917A00816046
:1014400080937A0080917A00806880937A0010926D
:10145000C100E091A102F091A20282E08083E091BC
:101460009D02F0919E021082E0919F02F091A002F5
:101470008FEC80831092A902E091A502F091A60260
:1014800086E08083E091A302F091A40280818061D4
:101490008083E091A302F091A40280818860808320
:1014A000E091A302F091A402808180688083E091A2
:1014B000A302F091A40280818F7D80831092250287
:1014C0001092240210926E02109290020E94B007B5
:1014D000DD24D394D0926D02D8E6D0938F0210927F
:1014E0006E021092900280E090E00E9445090E94F6
:1014F000930881E090E00E944A098EE293E00E9406
:10150000390287FF87C06CE371E081E992E00E94B5
:10151000F90260E571E081E992E00E94F9028CE550
:1015200091E00E947506C82F87E591E00E9475063C
:10153000182F8FE591E00E947506082F82E691E052
:101540000E947506F82E85E691E00E947506E82E49
:10155000D0926D02D0938F0210926E021092900280
:1015600080E090E00E944509DAE08E2D6D2F0E9408
:10157000A60E482F880F480F440F642F6E0D8EE281
:1015800093E00E947D028F2D6D2F0E94A60E382FB2
:10159000880F380F330F632F6F0D8EE293E00E9498
:1015A0007D02802F6D2F0E94A60E282F880F280FF6
:1015B000220F622F600F8EE293E00E947D0260E0B6
:1015C0008EE293E00E947D02812F6D2F0E94A60E75
:1015D000982F880F980F990F692F610F8EE293E073
:1015E0000E947D0266E08EE293E00E947D028C2FD5
:1015F0006D2F0E94A60E682F660F680F660F6C0F86
:101600008EE293E00E947D0280E090E00E94450916
:101610000E94930860E288ED93E00E94CE0761E2A9
:1016200089EB93E00E94CE0760E088ED93E00E9492
:10163000F00861E088ED93E00E94F00862E088ED38
:1016400093E00E94F00863E088ED93E00E94F008C8
:1016500064E088ED93E00E94F00865E088ED93E097
:101660000E94F00866E088ED93E00E94F00867E0D1
:1016700088ED93E00E94F00860E089EB93E00E941F
:10168000F00861E089EB93E00E94F00862E088E0F6
:101690000E94740462E089E00E94740447E050E014
:1016A00068E671E08AE393E00E94B90246E050E008
:1016B00060E771E084E593E00E94B90244E050E005
:1016C00067E771E08EE693E00E94B90245E050E0E2
:1016D0006CE771E088E893E00E94B902EAE3F3E086
:1016E00080E090E061EE77E045E050E02FE130E00F
:1016F00008E010E0C1E1D0E073876287518740873E
:10170000378326831587048717861686758B648B27
:10171000538B428B318B208BD78BC68BDC019D96F4
:10172000B18FA08F01967A968430910529F720E039
:1017300042E060E182EA93E00E940108772473941A
:1017400078E6672EEAE15E2E0AEF70926D026092F3
:101750008F0210926E021092900280E090E00E9440
:1017600045090E94930887E090E00E944A098EE2B2
:1017700093E00E943902182F8EE293E00E94390212
:101780007C018EE293E00E9439026C018EE293E0CC
:101790000E9439028EE293E00E9439025C018EE2DF
:1017A00093E00E9439024C018EE293E00E943902DC
:1017B000EC018091D80381608093D80388ED93E099
:1017C0000E94D9058091D80382608093D80388ED68
:1017D00093E00E94D9058091D80384608093D80358
:1017E00088ED93E00E94D9058091D80388608093AA
:1017F000D80388ED93E00E94D9058091D8038F7EAD
:101800008093D80388ED93E00E94D9058091D80396
:101810008F7D8093D80388ED93E00E94D905809155
:10182000D8038F7B8093D80388ED93E00E94D9057D
:101830008091D8038F778093D80388ED93E00E943E
:10184000D9058091B90381608093B90389EB93E056
:101850000E94D9058091B9038D7F8093B90389EBEC
:1018600093E00E94D905809123028111BAC01F77AD
:10187000812F82958F70809F100D1124C7019927A9
:1018800024E0959587952A95E1F7089FE00C1124AF
:10189000C601992734E0959587953A95E1F7089F19
:1018A000C00C112482EA93E00E94F90780E00E94B4
:1018B0009F09CE01992744E0959587954A95E1F7D0
:1018C000089FC00D11244C2F50E0EA01C053D84F9F
:1018D000AE01DD0F660B770B2AE082EA93E00E94EF
:1018E0000E038FE20E945609C401992754E0959592
:1018F00087955A95E1F7482D089F400D112450E037
:1019000060E070E02AE082EA93E00E940E038FE23A
:101910000E945609C501992764E0959587956A95B7
:10192000E1F74A2D089F400D112450E060E070E07F
:101930002AE082EA93E00E940E0381E00E949F0960
:101940008C2D90E00E9484084C2D50E060E070E007
:101950002AE081E992E00E940E0362E871E081E9E9
:1019600092E00E9457038AE30E9456098E2D90E070
:101970000E9484084E2D50E060E070E02AE081E98A
:1019800092E00E940E0362E871E081E992E00E9419
:1019900057038AE30E945609812F90E00E94840831
:1019A000412F50E060E070E02AE081E992E00E947F
:1019B0000E0361E571E081E992E00E94570364E85B
:1019C00071E082EA93E00E94570388E00E94B1032D
:1019D000892B09F0DFC080912302872580932302A1
:1019E000D9C089E00E94B103892B69F482EA93E0AF
:1019F0000E94F90780912102909122020196909312
:101A00002202809321028EE1E82EF12CC090210267
:101A1000D090220280E00E949F095C9CE0015D9CC6
:101A2000D00D1124C65CDC4F4C815D8168817981C9
:101A300082EA93E00E94920064E871E082EA93E017
:101A40000E94570366E871E082EA93E00E94570320
:101A500062E871E082EA93E00E9457038A859B85E1
:101A60000E94610960E971E082EA93E00E945703F5
:101A7000888599850E94610960E971E082EA93E0B6
:101A80000E9457038E819F810E94610964E871E082
:101A900082EA93E00E9457038C859D850E9461092C
:101AA00062E871E082EA93E00E9457038E859F8589
:101AB0000E94840881E00E949F0962E971E082EA45
:101AC00093E00E94570362E871E082EA93E00E948B
:101AD00057038C899D890E94610960E971E082EA5F
:101AE00093E00E9457038A899B890E94610960E9FB
:101AF00071E082EA93E00E945703888999890E94E5
:101B0000610964E871E082EA93E00E9457038E89DC
:101B10009F890E94610962E871E082EA93E00E9475
:101B20005703888D998D0E94840868E182EA93E0CA
:101B30000E94F10789E00E94B103892B71F4809122
:101B40002102909122020196909322028093210219
:101B500082EA93E00E94F90708C088E00E94B1037E
:101B6000892B19F41092230215C0809121029091C3
:101B70002202049724F0109222021092210268EEB1
:101B800073E080E090E00E94550581E0E81AF108DA
:101B900009F03CCF64EF71E080E090E00E945505D1
:101BA0000E947F01D2CD1F93CF93DF9310929402B6
:101BB0001092930288EE93E0A0E0B0E0809395024B
:101BC00090939602A0939702B093980220E131E09F
:101BD000309392022093910225EC30E030939E02E4
:101BE00020939D0224EC30E03093A00220939F02CA
:101BF00020EC30E03093A2022093A10221EC30E0EF
:101C00003093A4022093A30222EC30E03093A6028A
:101C10002093A50226EC30E03093A8022093A7027F
:101C20001092AA021092AB021092AC021092AD0276
:101C30001092310310923003809332039093330358
:101C4000A0933403B093350380E291E090932F0387
:101C500080932E0388ED93E00E94F00589EB93E0DA
:101C60000E94F0051092A5031092A40380E391E076
:101C70009093A3038093A20382E08093AD038FEF40
:101C80008093AE0383E08093AF0384E08093B0033E
:101C900085E08093B10386E08093B20387E0809370
:101CA000B3031092B4031092B5031092B6031092CE
:101CB000B703C0EBD3E01C2F1C5F61E089910E9449
:101CC00074041C13FACF61E08091AD030E94740488
:101CD0008091AE038F3F19F061E00E94740461E0CF
:101CE0008091AF030E9474041092A60360E080917B
:101CF000AD030E94DA0360E08091AF030E94DA0333
:101D00008091AE038F3F19F060E00E94DA038FEFFD
:101D10008093B8031092AC031092AB03CAE3D3E0F4
:101D2000198218821B821A821D821C8240E050E0B8
:101D300062E571E0CE010E94B9026A9683E0C23A80
:101D4000D80771F7DF91CF911F910895991B79E022
:101D500004C0991F961708F0961B881F7A95C9F73B
:101D600080950895A1E21A2EAA1BBB1BFD010DC090
:101D7000AA1FBB1FEE1FFF1FA217B307E407F5073B
:101D800020F0A21BB30BE40BF50B661F771F881F17
:101D9000991F1A9469F760957095809590959B01AD
:101DA000AC01BD01CF010895EE0FFF1F0590F49126
:101DB000E02D0994CF93DF938230910510F482E0F7
:101DC00090E0E091F903F091FA0320E030E0C0E008
:101DD000D0E0309711F14081518148175907C0F088
:101DE0004817590761F482819381209719F09B83EA
:101DF0008A832BC09093FA038093F90326C02115A0
:101E0000310519F04217530718F49A01BE01DF019A
:101E1000EF010280F381E02DDCCF2115310509F1BE
:101E2000281B390B2430310590F412968D919C912A
:101E300013976115710521F0FB019383828304C020
:101E40009093FA038093F903FD01329644C0FD019B
:101E5000E20FF31F81939193225031092D933C930C
:101E60003AC02091F7033091F803232B41F42091DD
:101E70000201309103013093F8032093F70320917E
:101E80000001309101012115310541F42DB73EB714
:101E90004091040150910501241B350BE091F7039B
:101EA000F091F803E217F307A0F42E1B3F0B28175D
:101EB000390778F0AC014E5F5F4F2417350748F0C3
:101EC0004E0F5F1F5093F8034093F7038193919354
:101ED00002C0E0E0F0E0CF01DF91CF9108950F93D1
:101EE0001F93CF93DF93009709F48CC0FC013297C6
:101EF000138212820091F9031091FA030115110562
:101F000081F420813181820F931F2091F70330915A
:101F1000F8032817390779F5F093F803E093F703EE
:101F200071C0D80140E050E0AE17BF0750F41296E0
:101F30002D913C911397AD012115310509F1D9017E
:101F4000F3CF9D01DA013383228360817181860F93
:101F5000971F8217930769F4EC0128813981260FB6
:101F6000371F2E5F3F4F318320838A819B8193836C
:101F70008283452B29F4F093FA03E093F90342C0DE
:101F80001396FC93EE931297ED01499159919E019E
:101F9000240F351FE217F30771F480819181840FBC
:101FA000951F029611969C938E938281938113962E
:101FB0009C938E931297E0E0F0E0D80112968D91F9
:101FC0009C911397009719F0F8018C01F6CF8D9131
:101FD0009C9198012E5F3F4F820F931F2091F70332
:101FE0003091F8032817390769F4309729F41092D3
:101FF000FA031092F90302C0138212821093F803BD
:102000000093F703DF91CF911F910F910895A0E006
:10201000B0E0EDE0F0E10C94E510EC01009721F464
:10202000CB010E94DA0EB8C0FC01E60FF71F9C013D
:1020300022503109E217F30708F4ACC0D9010D9121
:102040001C91119706171707B0F00530110508F419
:102050009FC0C80104978617970708F499C00250DB
:102060001109061B170B019311936D937C93CF01FC
:102070000E946F0F8DC05B01A01AB10A4C01800E47
:10208000911EA091F903B091FA0340E050E0E12CD9
:10209000F12C109709F44AC0A815B905D1F56D9037
:1020A0007C901197630182E0C80ED11CCA14DB0436
:1020B00080F1A3014A195B096A0182E0C80ED11CB4
:1020C0001296BC9012971396AC91B5E0CB16D10442
:1020D00040F0B282A38351834083D9016D937C93F6
:1020E0000AC00E5F1F4FC301800F911FF90191833A
:1020F0008083EB2DFA2FE114F10431F0D701139610
:10210000FC93EE93129744C0F093FA03E093F90323
:102110003FC08D919C9111974817590708F4AC0165
:102120007D0112960D90BC91A02DB3CF8091F70345
:102130009091F80388159905E1F446175707C8F4FC
:102140008091000190910101009741F48DB79EB7F5
:102150004091040150910501841B950BE817F90784
:10216000C8F4F093F803E093F703F90171836083F7
:102170000FC0CB010E94DA0E7C01009759F0A80134
:10218000BE010E94D110CE010E946F0FC70104C092
:10219000CE0102C080E090E0CDB7DEB7EEE00C9457
:1021A0000111FB01DC0102C001900D924150504031
:1021B000D8F70895FB01DC0101900D920020E1F7B2
:1021C00008952F923F924F925F926F927F928F92DB
:1021D0009F92AF92BF92CF92DF92EF92FF920F93B6
:1021E0001F93CF93DF93CDB7DEB7CA1BDB0B0FB6C0
:1021F000F894DEBF0FBECDBF09942A88398848887D
:102200005F846E847D848C849B84AA84B984C88412
:10221000DF80EE80FD800C811B81AA81B981CE0F09
:10222000D11D0FB6F894DEBF0FBECDBFED010895EE
:1022300010E0C7E6D0E004C0FE010E94D40E219653
:0A224000C836D107C9F7F894FFCFA4
:10224A000000FB0380006B006C006D0000000000C2
:10225A0016019200DF00BD00D1005D010000000000
:10226A007D024D02D70139022A022902000000002C
:10227A00AC029200010839050F0545045254432067
:10228A006973204E4F542072756E6E696E67210015
:10229A000D0A004A756E2020312032303137003065
:1022AA00303A35383A30320063656C6F7A6A6100C9
:1022BA006B616B74757300726F7A610070726F6212
:1022CA0061003A0020006F73742E706F646C2E00E8
:0E22DA002F006E6173742E20706F646C2E00E6
:107E000001C0ACC0112484B7882349F0982F9A7020
:107E1000923029F081FF02C097EF94BFD7D085E060
:107E20008093810082E08093C00088E18093C1004C
:107E300086E08093C20080E18093C4008FE0B1D0DF
:107E4000259A84E020E33CEF91E030938500209375
:107E5000840096BBB09BFECF1D9AA8958150A9F7D0
:107E6000C0E0D0E092D0813471F48FD0182F9FD031
:107E7000123811F482E005C0113811F486E001C017
:107E800083E07CD068C0823411F484E103C085347F
:107E900019F485E094D05FC0853541F476D0C82FC1
:107EA00074D0D0E0D82BCC0FDD1F54C0863521F420
:107EB00084E085D080E0E5CF843681F566D065D05A
:107EC000D82E63D0F82E00E011E05FD0F801819346
:107ED0008F01DE12FACF6BD0F5E4FF1201C0FFCFA5
:107EE00040E050E063E0CE0139D07E0100E011E0D7
:107EF000F80140810E5F1F4F3196808150E0582B72
:107F000061E0C7012BD0F2E0EF0EF11CD012F0CFF0
:107F100040E050E065E0CE0121D01DC0843769F417
:107F200034D033D0182F31D042D07E01F701859163
:107F30007F0124D01150D1F70EC0853739F437D0E6
:107F40008EE11CD085E91AD08FE09BCF813511F4EA
:107F500088E027D02CD080E111D084CFFC010A0129
:107F600067BFE895112407B600FCFDCF667029F0C5
:107F7000452B19F481E187BFE89508959091C000E1
:107F800095FFFCCF8093C60008958091C00087FFC5
:107F9000FCCF8091C00084FD01C0A8958091C600EF
:107FA0000895E0E6F0E098E1908380830895EDDFA6
:107FB000803219F088E0F5DFFFCF84E1DFCFCF9387
:107FC000C82FE3DFC150E9F7CF91F1CF282E80E031
:087FD000E8DFE0E0FF2709945F
:027FFE00020679
:0400000300007E007B
:00000001FF
